{
  "_format": "hh-sol-artifact-1",
  "contractName": "NFT",
  "sourceName": "contracts/EcoMarket.sol",
  "abi": [
    {
      "inputs": [
        {
          "internalType": "address",
          "name": "systemContractAddress",
          "type": "address"
        }
      ],
      "stateMutability": "nonpayable",
      "type": "constructor"
    },
    {
      "inputs": [],
      "name": "CallerNotOwnerNotApproved",
      "type": "error"
    },
    {
      "inputs": [
        {
          "internalType": "string",
          "name": "",
          "type": "string"
        }
      ],
      "name": "OnlySystemContract",
      "type": "error"
    },
    {
      "anonymous": false,
      "inputs": [
        {
          "indexed": true,
          "internalType": "address",
          "name": "owner",
          "type": "address"
        },
        {
          "indexed": true,
          "internalType": "address",
          "name": "approved",
          "type": "address"
        },
        {
          "indexed": true,
          "internalType": "uint256",
          "name": "tokenId",
          "type": "uint256"
        }
      ],
      "name": "Approval",
      "type": "event"
    },
    {
      "anonymous": false,
      "inputs": [
        {
          "indexed": true,
          "internalType": "address",
          "name": "owner",
          "type": "address"
        },
        {
          "indexed": true,
          "internalType": "address",
          "name": "operator",
          "type": "address"
        },
        {
          "indexed": false,
          "internalType": "bool",
          "name": "approved",
          "type": "bool"
        }
      ],
      "name": "ApprovalForAll",
      "type": "event"
    },
    {
      "anonymous": false,
      "inputs": [
        {
          "indexed": false,
          "internalType": "uint256",
          "name": "_fromTokenId",
          "type": "uint256"
        },
        {
          "indexed": false,
          "internalType": "uint256",
          "name": "_toTokenId",
          "type": "uint256"
        }
      ],
      "name": "BatchMetadataUpdate",
      "type": "event"
    },
    {
      "anonymous": false,
      "inputs": [
        {
          "indexed": false,
          "internalType": "uint256",
          "name": "_tokenId",
          "type": "uint256"
        }
      ],
      "name": "MetadataUpdate",
      "type": "event"
    },
    {
      "anonymous": false,
      "inputs": [
        {
          "indexed": true,
          "internalType": "address",
          "name": "from",
          "type": "address"
        },
        {
          "indexed": true,
          "internalType": "address",
          "name": "to",
          "type": "address"
        },
        {
          "indexed": true,
          "internalType": "uint256",
          "name": "tokenId",
          "type": "uint256"
        }
      ],
      "name": "Transfer",
      "type": "event"
    },
    {
      "inputs": [
        {
          "internalType": "address",
          "name": "to",
          "type": "address"
        },
        {
          "internalType": "uint256",
          "name": "tokenId",
          "type": "uint256"
        }
      ],
      "name": "approve",
      "outputs": [],
      "stateMutability": "nonpayable",
      "type": "function"
    },
    {
      "inputs": [
        {
          "internalType": "address",
          "name": "owner",
          "type": "address"
        }
      ],
      "name": "balanceOf",
      "outputs": [
        {
          "internalType": "uint256",
          "name": "",
          "type": "uint256"
        }
      ],
      "stateMutability": "view",
      "type": "function"
    },
    {
      "inputs": [
        {
          "internalType": "uint256",
          "name": "tokenId",
          "type": "uint256"
        },
        {
          "internalType": "bytes",
          "name": "recipient",
          "type": "bytes"
        }
      ],
      "name": "burnNFT",
      "outputs": [],
      "stateMutability": "nonpayable",
      "type": "function"
    },
    {
      "inputs": [
        {
          "internalType": "uint256",
          "name": "tokenId",
          "type": "uint256"
        }
      ],
      "name": "getApproved",
      "outputs": [
        {
          "internalType": "address",
          "name": "",
          "type": "address"
        }
      ],
      "stateMutability": "view",
      "type": "function"
    },
    {
      "inputs": [
        {
          "internalType": "address",
          "name": "owner",
          "type": "address"
        },
        {
          "internalType": "address",
          "name": "operator",
          "type": "address"
        }
      ],
      "name": "isApprovedForAll",
      "outputs": [
        {
          "internalType": "bool",
          "name": "",
          "type": "bool"
        }
      ],
      "stateMutability": "view",
      "type": "function"
    },
    {
      "inputs": [],
      "name": "name",
      "outputs": [
        {
          "internalType": "string",
          "name": "",
          "type": "string"
        }
      ],
      "stateMutability": "view",
      "type": "function"
    },
    {
      "inputs": [
        {
          "internalType": "uint256",
          "name": "",
          "type": "uint256"
        }
      ],
      "name": "nftMetadata",
      "outputs": [
        {
          "internalType": "uint256",
          "name": "wasteUnits",
          "type": "uint256"
        },
        {
          "internalType": "string",
          "name": "wasteType",
          "type": "string"
        },
        {
          "internalType": "uint256",
          "name": "chainId",
          "type": "uint256"
        }
      ],
      "stateMutability": "view",
      "type": "function"
    },
    {
      "inputs": [
        {
          "components": [
            {
              "internalType": "bytes",
              "name": "origin",
              "type": "bytes"
            },
            {
              "internalType": "address",
              "name": "sender",
              "type": "address"
            },
            {
              "internalType": "uint256",
              "name": "chainID",
              "type": "uint256"
            }
          ],
          "internalType": "struct zContext",
          "name": "context",
          "type": "tuple"
        },
        {
          "internalType": "address",
          "name": "zrc20",
          "type": "address"
        },
        {
          "internalType": "uint256",
          "name": "wasteUnits",
          "type": "uint256"
        },
        {
          "internalType": "bytes",
          "name": "message",
          "type": "bytes"
        },
        {
          "internalType": "string",
          "name": "wasteType",
          "type": "string"
        }
      ],
      "name": "onCrossChainCall",
      "outputs": [],
      "stateMutability": "nonpayable",
      "type": "function"
    },
    {
      "inputs": [
        {
          "components": [
            {
              "internalType": "bytes",
              "name": "origin",
              "type": "bytes"
            },
            {
              "internalType": "address",
              "name": "sender",
              "type": "address"
            },
            {
              "internalType": "uint256",
              "name": "chainID",
              "type": "uint256"
            }
          ],
          "internalType": "struct zContext",
          "name": "context",
          "type": "tuple"
        },
        {
          "internalType": "address",
          "name": "zrc20",
          "type": "address"
        },
        {
          "internalType": "uint256",
          "name": "amount",
          "type": "uint256"
        },
        {
          "internalType": "bytes",
          "name": "message",
          "type": "bytes"
        }
      ],
      "name": "onCrossChainCall",
      "outputs": [],
      "stateMutability": "nonpayable",
      "type": "function"
    },
    {
      "inputs": [
        {
          "internalType": "uint256",
          "name": "tokenId",
          "type": "uint256"
        }
      ],
      "name": "ownerOf",
      "outputs": [
        {
          "internalType": "address",
          "name": "",
          "type": "address"
        }
      ],
      "stateMutability": "view",
      "type": "function"
    },
    {
      "inputs": [
        {
          "internalType": "address",
          "name": "from",
          "type": "address"
        },
        {
          "internalType": "address",
          "name": "to",
          "type": "address"
        },
        {
          "internalType": "uint256",
          "name": "tokenId",
          "type": "uint256"
        }
      ],
      "name": "safeTransferFrom",
      "outputs": [],
      "stateMutability": "nonpayable",
      "type": "function"
    },
    {
      "inputs": [
        {
          "internalType": "address",
          "name": "from",
          "type": "address"
        },
        {
          "internalType": "address",
          "name": "to",
          "type": "address"
        },
        {
          "internalType": "uint256",
          "name": "tokenId",
          "type": "uint256"
        },
        {
          "internalType": "bytes",
          "name": "data",
          "type": "bytes"
        }
      ],
      "name": "safeTransferFrom",
      "outputs": [],
      "stateMutability": "nonpayable",
      "type": "function"
    },
    {
      "inputs": [
        {
          "internalType": "address",
          "name": "operator",
          "type": "address"
        },
        {
          "internalType": "bool",
          "name": "approved",
          "type": "bool"
        }
      ],
      "name": "setApprovalForAll",
      "outputs": [],
      "stateMutability": "nonpayable",
      "type": "function"
    },
    {
      "inputs": [
        {
          "internalType": "bytes4",
          "name": "interfaceId",
          "type": "bytes4"
        }
      ],
      "name": "supportsInterface",
      "outputs": [
        {
          "internalType": "bool",
          "name": "",
          "type": "bool"
        }
      ],
      "stateMutability": "view",
      "type": "function"
    },
    {
      "inputs": [],
      "name": "symbol",
      "outputs": [
        {
          "internalType": "string",
          "name": "",
          "type": "string"
        }
      ],
      "stateMutability": "view",
      "type": "function"
    },
    {
      "inputs": [],
      "name": "systemContract",
      "outputs": [
        {
          "internalType": "contract SystemContract",
          "name": "",
          "type": "address"
        }
      ],
      "stateMutability": "view",
      "type": "function"
    },
    {
      "inputs": [
        {
          "internalType": "uint256",
          "name": "",
          "type": "uint256"
        }
      ],
      "name": "tokenAmounts",
      "outputs": [
        {
          "internalType": "uint256",
          "name": "",
          "type": "uint256"
        }
      ],
      "stateMutability": "view",
      "type": "function"
    },
    {
      "inputs": [
        {
          "internalType": "uint256",
          "name": "",
          "type": "uint256"
        }
      ],
      "name": "tokenChains",
      "outputs": [
        {
          "internalType": "uint256",
          "name": "",
          "type": "uint256"
        }
      ],
      "stateMutability": "view",
      "type": "function"
    },
    {
      "inputs": [
        {
          "internalType": "uint256",
          "name": "tokenId",
          "type": "uint256"
        }
      ],
      "name": "tokenURI",
      "outputs": [
        {
          "internalType": "string",
          "name": "",
          "type": "string"
        }
      ],
      "stateMutability": "view",
      "type": "function"
    },
    {
      "inputs": [
        {
          "internalType": "address",
          "name": "from",
          "type": "address"
        },
        {
          "internalType": "address",
          "name": "to",
          "type": "address"
        },
        {
          "internalType": "uint256",
          "name": "tokenId",
          "type": "uint256"
        }
      ],
      "name": "transferFrom",
      "outputs": [],
      "stateMutability": "nonpayable",
      "type": "function"
    }
  ],
  "bytecode": "0x60806040523480156200001157600080fd5b5060405162003c8e38038062003c8e8339818101604052810190620000379190620001ee565b6040518060400160405280600581526020017f4d794e46540000000000000000000000000000000000000000000000000000008152506040518060400160405280600481526020017f4d4e4654000000000000000000000000000000000000000000000000000000008152508160009080519060200190620000bb92919062000127565b508060019080519060200190620000d492919062000127565b50505080600760006101000a81548173ffffffffffffffffffffffffffffffffffffffff021916908373ffffffffffffffffffffffffffffffffffffffff1602179055506000600b8190555050620002d8565b828054620001359062000254565b90600052602060002090601f016020900481019282620001595760008555620001a5565b82601f106200017457805160ff1916838001178555620001a5565b82800160010185558215620001a5579182015b82811115620001a457825182559160200191906001019062000187565b5b509050620001b49190620001b8565b5090565b5b80821115620001d3576000816000905550600101620001b9565b5090565b600081519050620001e881620002be565b92915050565b600060208284031215620002075762000206620002b9565b5b60006200021784828501620001d7565b91505092915050565b60006200022d8262000234565b9050919050565b600073ffffffffffffffffffffffffffffffffffffffff82169050919050565b600060028204905060018216806200026d57607f821691505b602082108114156200028457620002836200028a565b5b50919050565b7f4e487b7100000000000000000000000000000000000000000000000000000000600052602260045260246000fd5b600080fd5b620002c98162000220565b8114620002d557600080fd5b50565b6139a680620002e86000396000f3fe608060405234801561001057600080fd5b506004361061012c5760003560e01c806370a08231116100ad578063bb88b76911610071578063bb88b76914610367578063c87b56dd14610385578063d6b40e27146103b5578063de43156e146103d1578063e985e9c5146103ed5761012c565b806370a08231146102b157806395d89b41146102e15780639ad280c0146102ff578063a22cb4651461032f578063b88d4fde1461034b5761012c565b806323b872dd116100f457806323b872dd146101fb5780632400e85b1461021757806342842e0e14610233578063495410151461024f5780636352211e146102815761012c565b806301ffc9a71461013157806306fdde0314610161578063081812fc1461017f578063095ea7b3146101af5780630ba111c2146101cb575b600080fd5b61014b600480360381019061014691906128c3565b61041d565b6040516101589190612edc565b60405180910390f35b61016961042f565b6040516101769190612f42565b60405180910390f35b61019960048036038101906101949190612a99565b6104c1565b6040516101a69190612e4c565b60405180910390f35b6101c960048036038101906101c49190612816565b610507565b005b6101e560048036038101906101e09190612a99565b61061f565b6040516101f29190613104565b60405180910390f35b61021560048036038101906102109190612700565b610637565b005b610231600480360381019061022c91906129c1565b610697565b005b61024d60048036038101906102489190612700565b6107bc565b005b61026960048036038101906102649190612a99565b6107dc565b6040516102789392919061311f565b60405180910390f35b61029b60048036038101906102969190612a99565b61088e565b6040516102a89190612e4c565b60405180910390f35b6102cb60048036038101906102c69190612639565b610915565b6040516102d89190613104565b60405180910390f35b6102e96109cd565b6040516102f69190612f42565b60405180910390f35b61031960048036038101906103149190612a99565b610a5f565b6040516103269190613104565b60405180910390f35b610349600480360381019061034491906127d6565b610a77565b005b61036560048036038101906103609190612753565b610a8d565b005b61036f610aef565b60405161037c9190612f27565b60405180910390f35b61039f600480360381019061039a9190612a99565b610b15565b6040516103ac9190612f42565b60405180910390f35b6103cf60048036038101906103ca9190612ac6565b610b27565b005b6103eb60048036038101906103e6919061291d565b610e62565b005b610407600480360381019061040291906126c0565b610e69565b6040516104149190612edc565b60405180910390f35b600061042882610efd565b9050919050565b60606000805461043e906133b9565b80601f016020809104026020016040519081016040528092919081815260200182805461046a906133b9565b80156104b75780601f1061048c576101008083540402835291602001916104b7565b820191906000526020600020905b81548152906001019060200180831161049a57829003601f168201915b5050505050905090565b60006104cc82610f5e565b6004600083815260200190815260200160002060009054906101000a900473ffffffffffffffffffffffffffffffffffffffff169050919050565b60006105128261088e565b90508073ffffffffffffffffffffffffffffffffffffffff168373ffffffffffffffffffffffffffffffffffffffff161415610583576040517f08c379a000000000000000000000000000000000000000000000000000000000815260040161057a906130c4565b60405180910390fd5b8073ffffffffffffffffffffffffffffffffffffffff166105a2610fa9565b73ffffffffffffffffffffffffffffffffffffffff1614806105d157506105d0816105cb610fa9565b610e69565b5b610610576040517f08c379a0000000000000000000000000000000000000000000000000000000008152600401610607906130e4565b60405180910390fd5b61061a8383610fb1565b505050565b600a6020528060005260406000206000915090505481565b610648610642610fa9565b8261106a565b610687576040517f08c379a000000000000000000000000000000000000000000000000000000000815260040161067e90612f64565b60405180910390fd5b6106928383836110ff565b505050565b600760009054906101000a900473ffffffffffffffffffffffffffffffffffffffff168073ffffffffffffffffffffffffffffffffffffffff163373ffffffffffffffffffffffffffffffffffffffff1614610728576040517f14c6658d00000000000000000000000000000000000000000000000000000000815260040161071f90612fa4565b60405180910390fd5b600061479c8960400135141561074b57610744868660006113f9565b905061075d565b858581019061075a9190612693565b90505b6107b1818a604001358987878080601f016020809104026020016040519081016040528093929190818152602001838380828437600081840152601f19601f8201169050808301925050505050505061146e565b505050505050505050565b6107d783838360405180602001604052806000815250610a8d565b505050565b6008602052806000526040600020600091509050806000015490806001018054610805906133b9565b80601f0160208091040260200160405190810160405280929190818152602001828054610831906133b9565b801561087e5780601f106108535761010080835404028352916020019161087e565b820191906000526020600020905b81548152906001019060200180831161086157829003601f168201915b5050505050908060020154905083565b60008061089a83611559565b9050600073ffffffffffffffffffffffffffffffffffffffff168173ffffffffffffffffffffffffffffffffffffffff16141561090c576040517f08c379a0000000000000000000000000000000000000000000000000000000008152600401610903906130a4565b60405180910390fd5b80915050919050565b60008073ffffffffffffffffffffffffffffffffffffffff168273ffffffffffffffffffffffffffffffffffffffff161415610986576040517f08c379a000000000000000000000000000000000000000000000000000000000815260040161097d90613044565b60405180910390fd5b600360008373ffffffffffffffffffffffffffffffffffffffff1673ffffffffffffffffffffffffffffffffffffffff168152602001908152602001600020549050919050565b6060600180546109dc906133b9565b80601f0160208091040260200160405190810160405280929190818152602001828054610a08906133b9565b8015610a555780601f10610a2a57610100808354040283529160200191610a55565b820191906000526020600020905b815481529060010190602001808311610a3857829003601f168201915b5050505050905090565b60096020528060005260406000206000915090505481565b610a89610a82610fa9565b8383611596565b5050565b610a9e610a98610fa9565b8361106a565b610add576040517f08c379a0000000000000000000000000000000000000000000000000000000008152600401610ad490612f64565b60405180910390fd5b610ae984848484611703565b50505050565b600760009054906101000a900473ffffffffffffffffffffffffffffffffffffffff1681565b6060610b208261175f565b9050919050565b610b38610b32610fa9565b8361106a565b610b6e576040517fcdf9253f00000000000000000000000000000000000000000000000000000000815260040160405180910390fd5b6000600760009054906101000a900473ffffffffffffffffffffffffffffffffffffffff1673ffffffffffffffffffffffffffffffffffffffff16630be1554760086000868152602001908152602001600020600201546040518263ffffffff1660e01b8152600401610be19190613104565b60206040518083038186803b158015610bf957600080fd5b505afa158015610c0d573d6000803e3d6000fd5b505050506040513d601f19601f82011682018060405250810190610c319190612666565b905060008173ffffffffffffffffffffffffffffffffffffffff1663d9eeebed6040518163ffffffff1660e01b8152600401604080518083038186803b158015610c7a57600080fd5b505afa158015610c8e573d6000803e3d6000fd5b505050506040513d601f19601f82011682018060405250810190610cb29190612856565b9150508173ffffffffffffffffffffffffffffffffffffffff1663095ea7b383836040518363ffffffff1660e01b8152600401610cf0929190612eb3565b602060405180830381600087803b158015610d0a57600080fd5b505af1158015610d1e573d6000803e3d6000fd5b505050506040513d601f19601f82011682018060405250810190610d429190612896565b508173ffffffffffffffffffffffffffffffffffffffff1663c701262684836009600089815260200190815260200160002054610d7f9190613287565b6040518363ffffffff1660e01b8152600401610d9c929190612ef7565b602060405180830381600087803b158015610db657600080fd5b505af1158015610dca573d6000803e3d6000fd5b505050506040513d601f19601f82011682018060405250810190610dee9190612896565b50610df884611872565b6009600085815260200190815260200160002060009055600a60008581526020019081526020016000206000905560086000858152602001908152602001600020600080820160009055600182016000610e52919061235e565b6002820160009055505050505050565b5050505050565b6000600560008473ffffffffffffffffffffffffffffffffffffffff1673ffffffffffffffffffffffffffffffffffffffff16815260200190815260200160002060008373ffffffffffffffffffffffffffffffffffffffff1673ffffffffffffffffffffffffffffffffffffffff16815260200190815260200160002060009054906101000a900460ff16905092915050565b6000634906490660e01b7bffffffffffffffffffffffffffffffffffffffffffffffffffffffff1916827bffffffffffffffffffffffffffffffffffffffffffffffffffffffff19161480610f575750610f568261187e565b5b9050919050565b610f6781611960565b610fa6576040517f08c379a0000000000000000000000000000000000000000000000000000000008152600401610f9d906130a4565b60405180910390fd5b50565b600033905090565b816004600083815260200190815260200160002060006101000a81548173ffffffffffffffffffffffffffffffffffffffff021916908373ffffffffffffffffffffffffffffffffffffffff160217905550808273ffffffffffffffffffffffffffffffffffffffff166110248361088e565b73ffffffffffffffffffffffffffffffffffffffff167f8c5be1e5ebec7d5bd14f71427d1e84f3dd0314c0f7b2291e5b200ac8c7c3b92560405160405180910390a45050565b6000806110768361088e565b90508073ffffffffffffffffffffffffffffffffffffffff168473ffffffffffffffffffffffffffffffffffffffff1614806110b857506110b78185610e69565b5b806110f657508373ffffffffffffffffffffffffffffffffffffffff166110de846104c1565b73ffffffffffffffffffffffffffffffffffffffff16145b91505092915050565b8273ffffffffffffffffffffffffffffffffffffffff1661111f8261088e565b73ffffffffffffffffffffffffffffffffffffffff1614611175576040517f08c379a000000000000000000000000000000000000000000000000000000000815260040161116c90612fc4565b60405180910390fd5b600073ffffffffffffffffffffffffffffffffffffffff168273ffffffffffffffffffffffffffffffffffffffff1614156111e5576040517f08c379a00000000000000000000000000000000000000000000000000000000081526004016111dc90613004565b60405180910390fd5b6111f283838360016119a1565b8273ffffffffffffffffffffffffffffffffffffffff166112128261088e565b73ffffffffffffffffffffffffffffffffffffffff1614611268576040517f08c379a000000000000000000000000000000000000000000000000000000000815260040161125f90612fc4565b60405180910390fd5b6004600082815260200190815260200160002060006101000a81549073ffffffffffffffffffffffffffffffffffffffff02191690556001600360008573ffffffffffffffffffffffffffffffffffffffff1673ffffffffffffffffffffffffffffffffffffffff168152602001908152602001600020600082825403925050819055506001600360008473ffffffffffffffffffffffffffffffffffffffff1673ffffffffffffffffffffffffffffffffffffffff16815260200190815260200160002060008282540192505081905550816002600083815260200190815260200160002060006101000a81548173ffffffffffffffffffffffffffffffffffffffff021916908373ffffffffffffffffffffffffffffffffffffffff160217905550808273ffffffffffffffffffffffffffffffffffffffff168473ffffffffffffffffffffffffffffffffffffffff167fddf252ad1be2c89b69c2b068fc378daa952ba7f163c4a11628f55a4df523b3ef60405160405180910390a46113f483838360016119a7565b505050565b6000808484849060148661140d9190613231565b9261141a939291906131f6565b8080601f016020809104026020016040519081016040528093929190818152602001838380828437600081840152601f19601f82011690508083019250505050505050905060148101519150509392505050565b6000600b54905061147f85826119ad565b604051806060016040528084815260200183815260200185815250600860008381526020019081526020016000206000820151816000015560208201518160010190805190602001906114d392919061239e565b506040820151816002015590505082600960008381526020019081526020016000208190555083600a60008381526020019081526020016000208190555061153a81826040516020016115269190612e26565b6040516020818303038152906040526119cb565b600b600081548092919061154d9061341c565b91905055505050505050565b60006002600083815260200190815260200160002060009054906101000a900473ffffffffffffffffffffffffffffffffffffffff169050919050565b8173ffffffffffffffffffffffffffffffffffffffff168373ffffffffffffffffffffffffffffffffffffffff161415611605576040517f08c379a00000000000000000000000000000000000000000000000000000000081526004016115fc90613024565b60405180910390fd5b80600560008573ffffffffffffffffffffffffffffffffffffffff1673ffffffffffffffffffffffffffffffffffffffff16815260200190815260200160002060008473ffffffffffffffffffffffffffffffffffffffff1673ffffffffffffffffffffffffffffffffffffffff16815260200190815260200160002060006101000a81548160ff0219169083151502179055508173ffffffffffffffffffffffffffffffffffffffff168373ffffffffffffffffffffffffffffffffffffffff167f17307eab39ab6107e8899845ad3d59bd9653f200f220920489ca2b5937696c31836040516116f69190612edc565b60405180910390a3505050565b61170e8484846110ff565b61171a84848484611a76565b611759576040517f08c379a000000000000000000000000000000000000000000000000000000000815260040161175090612f84565b60405180910390fd5b50505050565b606061176a82610f5e565b600060066000848152602001908152602001600020805461178a906133b9565b80601f01602080910402602001604051908101604052809291908181526020018280546117b6906133b9565b80156118035780601f106117d857610100808354040283529160200191611803565b820191906000526020600020905b8154815290600101906020018083116117e657829003601f168201915b505050505090506000611814611c0d565b905060008151141561182a57819250505061186d565b60008251111561185f578082604051602001611847929190612e02565b6040516020818303038152906040529250505061186d565b61186884611c24565b925050505b919050565b61187b81611c8c565b50565b60007f80ac58cd000000000000000000000000000000000000000000000000000000007bffffffffffffffffffffffffffffffffffffffffffffffffffffffff1916827bffffffffffffffffffffffffffffffffffffffffffffffffffffffff1916148061194957507f5b5e139f000000000000000000000000000000000000000000000000000000007bffffffffffffffffffffffffffffffffffffffffffffffffffffffff1916827bffffffffffffffffffffffffffffffffffffffffffffffffffffffff1916145b80611959575061195882611cdf565b5b9050919050565b60008073ffffffffffffffffffffffffffffffffffffffff1661198283611559565b73ffffffffffffffffffffffffffffffffffffffff1614159050919050565b50505050565b50505050565b6119c7828260405180602001604052806000815250611d49565b5050565b6119d482611960565b611a13576040517f08c379a0000000000000000000000000000000000000000000000000000000008152600401611a0a90613064565b60405180910390fd5b80600660008481526020019081526020016000209080519060200190611a3a92919061239e565b507ff8e1a15aba9398e019f0b49df1a4fde98ee17ae345cb5f6b5e2c27f5033e8ce782604051611a6a9190613104565b60405180910390a15050565b6000611a978473ffffffffffffffffffffffffffffffffffffffff16611da4565b15611c00578373ffffffffffffffffffffffffffffffffffffffff1663150b7a02611ac0610fa9565b8786866040518563ffffffff1660e01b8152600401611ae29493929190612e67565b602060405180830381600087803b158015611afc57600080fd5b505af1925050508015611b2d57506040513d601f19601f82011682018060405250810190611b2a91906128f0565b60015b611bb0573d8060008114611b5d576040519150601f19603f3d011682016040523d82523d6000602084013e611b62565b606091505b50600081511415611ba8576040517f08c379a0000000000000000000000000000000000000000000000000000000008152600401611b9f90612f84565b60405180910390fd5b805181602001fd5b63150b7a0260e01b7bffffffffffffffffffffffffffffffffffffffffffffffffffffffff1916817bffffffffffffffffffffffffffffffffffffffffffffffffffffffff191614915050611c05565b600190505b949350505050565b606060405180602001604052806000815250905090565b6060611c2f82610f5e565b6000611c39611c0d565b90506000815111611c595760405180602001604052806000815250611c84565b80611c6384611dc7565b604051602001611c74929190612e02565b6040516020818303038152906040525b915050919050565b611c9581611e9f565b6000600660008381526020019081526020016000208054611cb5906133b9565b905014611cdc57600660008281526020019081526020016000206000611cdb919061235e565b5b50565b60007f01ffc9a7000000000000000000000000000000000000000000000000000000007bffffffffffffffffffffffffffffffffffffffffffffffffffffffff1916827bffffffffffffffffffffffffffffffffffffffffffffffffffffffff1916149050919050565b611d538383611fed565b611d606000848484611a76565b611d9f576040517f08c379a0000000000000000000000000000000000000000000000000000000008152600401611d9690612f84565b60405180910390fd5b505050565b6000808273ffffffffffffffffffffffffffffffffffffffff163b119050919050565b606060006001611dd68461220b565b01905060008167ffffffffffffffff811115611df557611df46134fc565b5b6040519080825280601f01601f191660200182016040528015611e275781602001600182028036833780820191505090505b509050600082602001820190505b600115611e94578080600190039150507f3031323334353637383961626364656600000000000000000000000000000000600a86061a8153600a8581611e7e57611e7d61349e565b5b0494506000851415611e8f57611e94565b611e35565b819350505050919050565b6000611eaa8261088e565b9050611eba8160008460016119a1565b611ec38261088e565b90506004600083815260200190815260200160002060006101000a81549073ffffffffffffffffffffffffffffffffffffffff02191690556001600360008373ffffffffffffffffffffffffffffffffffffffff1673ffffffffffffffffffffffffffffffffffffffff168152602001908152602001600020600082825403925050819055506002600083815260200190815260200160002060006101000a81549073ffffffffffffffffffffffffffffffffffffffff021916905581600073ffffffffffffffffffffffffffffffffffffffff168273ffffffffffffffffffffffffffffffffffffffff167fddf252ad1be2c89b69c2b068fc378daa952ba7f163c4a11628f55a4df523b3ef60405160405180910390a4611fe98160008460016119a7565b5050565b600073ffffffffffffffffffffffffffffffffffffffff168273ffffffffffffffffffffffffffffffffffffffff16141561205d576040517f08c379a000000000000000000000000000000000000000000000000000000000815260040161205490613084565b60405180910390fd5b61206681611960565b156120a6576040517f08c379a000000000000000000000000000000000000000000000000000000000815260040161209d90612fe4565b60405180910390fd5b6120b46000838360016119a1565b6120bd81611960565b156120fd576040517f08c379a00000000000000000000000000000000000000000000000000000000081526004016120f490612fe4565b60405180910390fd5b6001600360008473ffffffffffffffffffffffffffffffffffffffff1673ffffffffffffffffffffffffffffffffffffffff16815260200190815260200160002060008282540192505081905550816002600083815260200190815260200160002060006101000a81548173ffffffffffffffffffffffffffffffffffffffff021916908373ffffffffffffffffffffffffffffffffffffffff160217905550808273ffffffffffffffffffffffffffffffffffffffff16600073ffffffffffffffffffffffffffffffffffffffff167fddf252ad1be2c89b69c2b068fc378daa952ba7f163c4a11628f55a4df523b3ef60405160405180910390a46122076000838360016119a7565b5050565b600080600090507a184f03e93ff9f4daa797ed6e38ed64bf6a1f0100000000000000008310612269577a184f03e93ff9f4daa797ed6e38ed64bf6a1f010000000000000000838161225f5761225e61349e565b5b0492506040810190505b6d04ee2d6d415b85acef810000000083106122a6576d04ee2d6d415b85acef8100000000838161229c5761229b61349e565b5b0492506020810190505b662386f26fc1000083106122d557662386f26fc1000083816122cb576122ca61349e565b5b0492506010810190505b6305f5e10083106122fe576305f5e10083816122f4576122f361349e565b5b0492506008810190505b61271083106123235761271083816123195761231861349e565b5b0492506004810190505b60648310612346576064838161233c5761233b61349e565b5b0492506002810190505b600a8310612355576001810190505b80915050919050565b50805461236a906133b9565b6000825580601f1061237c575061239b565b601f01602090049060005260206000209081019061239a9190612424565b5b50565b8280546123aa906133b9565b90600052602060002090601f0160209004810192826123cc5760008555612413565b82601f106123e557805160ff1916838001178555612413565b82800160010185558215612413579182015b828111156124125782518255916020019190600101906123f7565b5b5090506124209190612424565b5090565b5b8082111561243d576000816000905550600101612425565b5090565b600061245461244f84613182565b61315d565b9050828152602081018484840111156124705761246f613549565b5b61247b848285613377565b509392505050565b600081359050612492816138fd565b92915050565b6000815190506124a7816138fd565b92915050565b6000813590506124bc81613914565b92915050565b6000813590506124d18161392b565b92915050565b6000815190506124e68161392b565b92915050565b6000813590506124fb81613942565b92915050565b60008151905061251081613942565b92915050565b60008083601f84011261252c5761252b613530565b5b8235905067ffffffffffffffff8111156125495761254861352b565b5b60208301915083600182028301111561256557612564613544565b5b9250929050565b600082601f83011261258157612580613530565b5b8135612591848260208601612441565b91505092915050565b60008083601f8401126125b0576125af613530565b5b8235905067ffffffffffffffff8111156125cd576125cc61352b565b5b6020830191508360018202830111156125e9576125e8613544565b5b9250929050565b60006060828403121561260657612605613535565b5b81905092915050565b60008135905061261e81613959565b92915050565b60008151905061263381613959565b92915050565b60006020828403121561264f5761264e613553565b5b600061265d84828501612483565b91505092915050565b60006020828403121561267c5761267b613553565b5b600061268a84828501612498565b91505092915050565b6000602082840312156126a9576126a8613553565b5b60006126b7848285016124ad565b91505092915050565b600080604083850312156126d7576126d6613553565b5b60006126e585828601612483565b92505060206126f685828601612483565b9150509250929050565b60008060006060848603121561271957612718613553565b5b600061272786828701612483565b935050602061273886828701612483565b92505060406127498682870161260f565b9150509250925092565b6000806000806080858703121561276d5761276c613553565b5b600061277b87828801612483565b945050602061278c87828801612483565b935050604061279d8782880161260f565b925050606085013567ffffffffffffffff8111156127be576127bd61354e565b5b6127ca8782880161256c565b91505092959194509250565b600080604083850312156127ed576127ec613553565b5b60006127fb85828601612483565b925050602061280c858286016124c2565b9150509250929050565b6000806040838503121561282d5761282c613553565b5b600061283b85828601612483565b925050602061284c8582860161260f565b9150509250929050565b6000806040838503121561286d5761286c613553565b5b600061287b85828601612498565b925050602061288c85828601612624565b9150509250929050565b6000602082840312156128ac576128ab613553565b5b60006128ba848285016124d7565b91505092915050565b6000602082840312156128d9576128d8613553565b5b60006128e7848285016124ec565b91505092915050565b60006020828403121561290657612905613553565b5b600061291484828501612501565b91505092915050565b60008060008060006080868803121561293957612938613553565b5b600086013567ffffffffffffffff8111156129575761295661354e565b5b612963888289016125f0565b955050602061297488828901612483565b94505060406129858882890161260f565b935050606086013567ffffffffffffffff8111156129a6576129a561354e565b5b6129b288828901612516565b92509250509295509295909350565b600080600080600080600060a0888a0312156129e0576129df613553565b5b600088013567ffffffffffffffff8111156129fe576129fd61354e565b5b612a0a8a828b016125f0565b9750506020612a1b8a828b01612483565b9650506040612a2c8a828b0161260f565b955050606088013567ffffffffffffffff811115612a4d57612a4c61354e565b5b612a598a828b01612516565b9450945050608088013567ffffffffffffffff811115612a7c57612a7b61354e565b5b612a888a828b0161259a565b925092505092959891949750929550565b600060208284031215612aaf57612aae613553565b5b6000612abd8482850161260f565b91505092915050565b60008060408385031215612add57612adc613553565b5b6000612aeb8582860161260f565b925050602083013567ffffffffffffffff811115612b0c57612b0b61354e565b5b612b188582860161256c565b9150509250929050565b612b2b816132bb565b82525050565b612b3a816132df565b82525050565b6000612b4b826131b3565b612b5581856131c9565b9350612b65818560208601613386565b612b6e81613558565b840191505092915050565b612b8281613341565b82525050565b6000612b93826131be565b612b9d81856131da565b9350612bad818560208601613386565b612bb681613558565b840191505092915050565b6000612bcc826131be565b612bd681856131eb565b9350612be6818560208601613386565b80840191505092915050565b6000612bff602d836131da565b9150612c0a82613569565b604082019050919050565b6000612c226032836131da565b9150612c2d826135b8565b604082019050919050565b6000612c45602b836131da565b9150612c5082613607565b604082019050919050565b6000612c686025836131da565b9150612c7382613656565b604082019050919050565b6000612c8b601c836131da565b9150612c96826136a5565b602082019050919050565b6000612cae6024836131da565b9150612cb9826136ce565b604082019050919050565b6000612cd16019836131da565b9150612cdc8261371d565b602082019050919050565b6000612cf46029836131da565b9150612cff82613746565b604082019050919050565b6000612d17602e836131da565b9150612d2282613795565b604082019050919050565b6000612d3a6020836131da565b9150612d45826137e4565b602082019050919050565b6000612d5d6009836131eb565b9150612d688261380d565b600982019050919050565b6000612d806018836131da565b9150612d8b82613836565b602082019050919050565b6000612da36021836131da565b9150612dae8261385f565b604082019050919050565b6000612dc6603d836131da565b9150612dd1826138ae565b604082019050919050565b612de581613337565b82525050565b612dfc612df782613337565b613465565b82525050565b6000612e0e8285612bc1565b9150612e1a8284612bc1565b91508190509392505050565b6000612e3182612d50565b9150612e3d8284612deb565b60208201915081905092915050565b6000602082019050612e616000830184612b22565b92915050565b6000608082019050612e7c6000830187612b22565b612e896020830186612b22565b612e966040830185612ddc565b8181036060830152612ea88184612b40565b905095945050505050565b6000604082019050612ec86000830185612b22565b612ed56020830184612ddc565b9392505050565b6000602082019050612ef16000830184612b31565b92915050565b60006040820190508181036000830152612f118185612b40565b9050612f206020830184612ddc565b9392505050565b6000602082019050612f3c6000830184612b79565b92915050565b60006020820190508181036000830152612f5c8184612b88565b905092915050565b60006020820190508181036000830152612f7d81612bf2565b9050919050565b60006020820190508181036000830152612f9d81612c15565b9050919050565b60006020820190508181036000830152612fbd81612c38565b9050919050565b60006020820190508181036000830152612fdd81612c5b565b9050919050565b60006020820190508181036000830152612ffd81612c7e565b9050919050565b6000602082019050818103600083015261301d81612ca1565b9050919050565b6000602082019050818103600083015261303d81612cc4565b9050919050565b6000602082019050818103600083015261305d81612ce7565b9050919050565b6000602082019050818103600083015261307d81612d0a565b9050919050565b6000602082019050818103600083015261309d81612d2d565b9050919050565b600060208201905081810360008301526130bd81612d73565b9050919050565b600060208201905081810360008301526130dd81612d96565b9050919050565b600060208201905081810360008301526130fd81612db9565b9050919050565b60006020820190506131196000830184612ddc565b92915050565b60006060820190506131346000830186612ddc565b81810360208301526131468185612b88565b90506131556040830184612ddc565b949350505050565b6000613167613178565b905061317382826133eb565b919050565b6000604051905090565b600067ffffffffffffffff82111561319d5761319c6134fc565b5b6131a682613558565b9050602081019050919050565b600081519050919050565b600081519050919050565b600082825260208201905092915050565b600082825260208201905092915050565b600081905092915050565b6000808585111561320a5761320961353f565b5b8386111561321b5761321a61353a565b5b6001850283019150848603905094509492505050565b600061323c82613337565b915061324783613337565b9250827fffffffffffffffffffffffffffffffffffffffffffffffffffffffffffffffff0382111561327c5761327b61346f565b5b828201905092915050565b600061329282613337565b915061329d83613337565b9250828210156132b0576132af61346f565b5b828203905092915050565b60006132c682613317565b9050919050565b60006132d882613317565b9050919050565b60008115159050919050565b60007fffffffff0000000000000000000000000000000000000000000000000000000082169050919050565b600073ffffffffffffffffffffffffffffffffffffffff82169050919050565b6000819050919050565b600061334c82613353565b9050919050565b600061335e82613365565b9050919050565b600061337082613317565b9050919050565b82818337600083830152505050565b60005b838110156133a4578082015181840152602081019050613389565b838111156133b3576000848401525b50505050565b600060028204905060018216806133d157607f821691505b602082108114156133e5576133e46134cd565b5b50919050565b6133f482613558565b810181811067ffffffffffffffff82111715613413576134126134fc565b5b80604052505050565b600061342782613337565b91507fffffffffffffffffffffffffffffffffffffffffffffffffffffffffffffffff82141561345a5761345961346f565b5b600182019050919050565b6000819050919050565b7f4e487b7100000000000000000000000000000000000000000000000000000000600052601160045260246000fd5b7f4e487b7100000000000000000000000000000000000000000000000000000000600052601260045260246000fd5b7f4e487b7100000000000000000000000000000000000000000000000000000000600052602260045260246000fd5b7f4e487b7100000000000000000000000000000000000000000000000000000000600052604160045260246000fd5b600080fd5b600080fd5b600080fd5b600080fd5b600080fd5b600080fd5b600080fd5b600080fd5b600080fd5b6000601f19601f8301169050919050565b7f4552433732313a2063616c6c6572206973206e6f7420746f6b656e206f776e6560008201527f72206f7220617070726f76656400000000000000000000000000000000000000602082015250565b7f4552433732313a207472616e7366657220746f206e6f6e20455243373231526560008201527f63656976657220696d706c656d656e7465720000000000000000000000000000602082015250565b7f4f6e6c792073797374656d20636f6e74726163742063616e2063616c6c20746860008201527f69732066756e6374696f6e000000000000000000000000000000000000000000602082015250565b7f4552433732313a207472616e736665722066726f6d20696e636f72726563742060008201527f6f776e6572000000000000000000000000000000000000000000000000000000602082015250565b7f4552433732313a20746f6b656e20616c7265616479206d696e74656400000000600082015250565b7f4552433732313a207472616e7366657220746f20746865207a65726f2061646460008201527f7265737300000000000000000000000000000000000000000000000000000000602082015250565b7f4552433732313a20617070726f766520746f2063616c6c657200000000000000600082015250565b7f4552433732313a2061646472657373207a65726f206973206e6f74206120766160008201527f6c6964206f776e65720000000000000000000000000000000000000000000000602082015250565b7f45524337323155524953746f726167653a2055524920736574206f66206e6f6e60008201527f6578697374656e7420746f6b656e000000000000000000000000000000000000602082015250565b7f4552433732313a206d696e7420746f20746865207a65726f2061646472657373600082015250565b7f6d657461646174612f0000000000000000000000000000000000000000000000600082015250565b7f4552433732313a20696e76616c696420746f6b656e2049440000000000000000600082015250565b7f4552433732313a20617070726f76616c20746f2063757272656e74206f776e6560008201527f7200000000000000000000000000000000000000000000000000000000000000602082015250565b7f4552433732313a20617070726f76652063616c6c6572206973206e6f7420746f60008201527f6b656e206f776e6572206f7220617070726f76656420666f7220616c6c000000602082015250565b613906816132bb565b811461391157600080fd5b50565b61391d816132cd565b811461392857600080fd5b50565b613934816132df565b811461393f57600080fd5b50565b61394b816132eb565b811461395657600080fd5b50565b61396281613337565b811461396d57600080fd5b5056fea2646970667358221220d6b18276dd8ff87545a42318c0b88edfb28e11017663bcfaca393868952ccb4964736f6c63430008070033",
  "linkReferences": {},
  "deployedLinkReferences": {}
}